{
  "contractName": "TicTacToe",
  "abi": [
    {
      "constant": false,
      "inputs": [],
      "name": "stopContract",
      "outputs": [],
      "payable": false,
      "stateMutability": "nonpayable",
      "type": "function"
    },
    {
      "constant": true,
      "inputs": [],
      "name": "isStopped",
      "outputs": [
        {
          "name": "",
          "type": "bool"
        }
      ],
      "payable": false,
      "stateMutability": "view",
      "type": "function"
    },
    {
      "constant": false,
      "inputs": [],
      "name": "renounceOwnership",
      "outputs": [],
      "payable": false,
      "stateMutability": "nonpayable",
      "type": "function"
    },
    {
      "constant": true,
      "inputs": [],
      "name": "owner",
      "outputs": [
        {
          "name": "",
          "type": "address"
        }
      ],
      "payable": false,
      "stateMutability": "view",
      "type": "function"
    },
    {
      "constant": false,
      "inputs": [],
      "name": "resumeContract",
      "outputs": [],
      "payable": false,
      "stateMutability": "nonpayable",
      "type": "function"
    },
    {
      "constant": false,
      "inputs": [
        {
          "name": "_newOwner",
          "type": "address"
        }
      ],
      "name": "transferOwnership",
      "outputs": [],
      "payable": false,
      "stateMutability": "nonpayable",
      "type": "function"
    },
    {
      "anonymous": false,
      "inputs": [
        {
          "indexed": true,
          "name": "previousOwner",
          "type": "address"
        }
      ],
      "name": "OwnershipRenounced",
      "type": "event"
    },
    {
      "anonymous": false,
      "inputs": [
        {
          "indexed": true,
          "name": "previousOwner",
          "type": "address"
        },
        {
          "indexed": true,
          "name": "newOwner",
          "type": "address"
        }
      ],
      "name": "OwnershipTransferred",
      "type": "event"
    },
    {
      "constant": false,
      "inputs": [],
      "name": "join",
      "outputs": [
        {
          "name": "",
          "type": "int256"
        }
      ],
      "payable": false,
      "stateMutability": "nonpayable",
      "type": "function"
    },
    {
      "constant": false,
      "inputs": [
        {
          "name": "x",
          "type": "uint8"
        },
        {
          "name": "y",
          "type": "uint8"
        }
      ],
      "name": "playerTurn",
      "outputs": [
        {
          "name": "",
          "type": "uint8"
        }
      ],
      "payable": false,
      "stateMutability": "nonpayable",
      "type": "function"
    },
    {
      "constant": true,
      "inputs": [],
      "name": "winner",
      "outputs": [
        {
          "name": "",
          "type": "address"
        }
      ],
      "payable": false,
      "stateMutability": "view",
      "type": "function"
    },
    {
      "constant": true,
      "inputs": [],
      "name": "gamePhase",
      "outputs": [
        {
          "name": "",
          "type": "uint8"
        }
      ],
      "payable": false,
      "stateMutability": "view",
      "type": "function"
    },
    {
      "constant": true,
      "inputs": [],
      "name": "board",
      "outputs": [
        {
          "name": "",
          "type": "uint8[9]"
        }
      ],
      "payable": false,
      "stateMutability": "view",
      "type": "function"
    },
    {
      "constant": true,
      "inputs": [],
      "name": "players",
      "outputs": [
        {
          "name": "",
          "type": "address[2]"
        }
      ],
      "payable": false,
      "stateMutability": "view",
      "type": "function"
    }
  ],
  "bytecode": "0x608060405260008060146101000a81548160ff02191690831515021790555060008060156101000a81548160ff0219169083600381111561003c57fe5b02179055506002600560006101000a81548160ff021916908360ff160217905550336000806101000a81548173ffffffffffffffffffffffffffffffffffffffff021916908373ffffffffffffffffffffffffffffffffffffffff1602179055506116bf806100ac6000396000f3006080604052600436106100ba576000357c0100000000000000000000000000000000000000000000000000000000900463ffffffff16806312253a6c146100bf5780633951be87146100d65780633f683b6a1461010f578063715018a61461013e5780637cd3229a146101555780638da5cb5b146101a8578063a03e031a146101ff578063b688a3631461025e578063c4bc5da514610289578063dc0b3564146102a0578063dfbf53ae146102f3578063f2fde38b1461034a575b600080fd5b3480156100cb57600080fd5b506100d461038d565b005b3480156100e257600080fd5b506100eb610405565b604051808260038111156100fb57fe5b60ff16815260200191505060405180910390f35b34801561011b57600080fd5b50610124610437565b604051808215151515815260200191505060405180910390f35b34801561014a57600080fd5b5061015361044d565b005b34801561016157600080fd5b5061016a61054f565b6040518082600960200280838360005b8381101561019557808201518184015260208101905061017a565b5050505090500191505060405180910390f35b3480156101b457600080fd5b506101bd6105dc565b604051808273ffffffffffffffffffffffffffffffffffffffff1673ffffffffffffffffffffffffffffffffffffffff16815260200191505060405180910390f35b34801561020b57600080fd5b5061023a600480360381019080803560ff169060200190929190803560ff169060200190929190505050610601565b6040518082600381111561024a57fe5b60ff16815260200191505060405180910390f35b34801561026a57600080fd5b506102736107da565b6040518082815260200191505060405180910390f35b34801561029557600080fd5b5061029e610a60565b005b3480156102ac57600080fd5b506102b5610ad7565b6040518082600260200280838360005b838110156102e05780820151818401526020810190506102c5565b5050505090500191505060405180910390f35b3480156102ff57600080fd5b50610308610b74565b604051808273ffffffffffffffffffffffffffffffffffffffff1673ffffffffffffffffffffffffffffffffffffffff16815260200191505060405180910390f35b34801561035657600080fd5b5061038b600480360381019080803573ffffffffffffffffffffffffffffffffffffffff169060200190929190505050610bb9565b005b6000809054906101000a900473ffffffffffffffffffffffffffffffffffffffff1673ffffffffffffffffffffffffffffffffffffffff163373ffffffffffffffffffffffffffffffffffffffff161415156103e857600080fd5b6001600060146101000a81548160ff021916908315150217905550565b60008060149054906101000a900460ff1615151561042257600080fd5b600060159054906101000a900460ff16905090565b60008060149054906101000a900460ff16905090565b6000809054906101000a900473ffffffffffffffffffffffffffffffffffffffff1673ffffffffffffffffffffffffffffffffffffffff163373ffffffffffffffffffffffffffffffffffffffff161415156104a857600080fd5b6000809054906101000a900473ffffffffffffffffffffffffffffffffffffffff1673ffffffffffffffffffffffffffffffffffffffff167ff8df31144d9c2f0f6b59d69b8b98abd5459d07f2742c4df920b25aae33c6482060405160405180910390a260008060006101000a81548173ffffffffffffffffffffffffffffffffffffffff021916908373ffffffffffffffffffffffffffffffffffffffff160217905550565b61055761162a565b600060149054906101000a900460ff1615151561057357600080fd5b60026009806020026040519081016040528092919082600980156105d2576020028201916000905b82829054906101000a900460ff1660ff168152602001906001019060208260000104928301926001038202915080841161059b5790505b5050505050905090565b6000809054906101000a900473ffffffffffffffffffffffffffffffffffffffff1681565b600080600060149054906101000a900460ff1615151561062057600080fd5b60006001600381111561062f57fe5b600060159054906101000a900460ff16600381111561064a57fe5b148061067b57506002600381111561065e57fe5b600060159054906101000a900460ff16600381111561067957fe5b145b90508015156106f2576040517f08c379a000000000000000000000000000000000000000000000000000000000815260040180806020018281038252601c8152602001807f496e76616c69642067616d6520706861736520666f722063616c6c210000000081525060200191505060405180910390fd5b6000806106fe33610c20565b9150600073ffffffffffffffffffffffffffffffffffffffff163373ffffffffffffffffffffffffffffffffffffffff1614158015610741575060008260ff1614155b90508015156107b8576040517f08c379a000000000000000000000000000000000000000000000000000000000815260040180806020018281038252601d8152602001807f43616c6c6572206973206e6f7420706c61796572206f662067616d652100000081525060200191505060405180910390fd5b6107c133610c20565b93506107ce848888610cb6565b94505050505092915050565b600080600060149054906101000a900460ff161515156107f957600080fd5b6000600381111561080657fe5b600060159054906101000a900460ff16600381111561082157fe5b141515610896576040517f08c379a000000000000000000000000000000000000000000000000000000000815260040180806020018281038252601c8152602001807f496e76616c69642067616d6520706861736520666f722063616c6c210000000081525060200191505060405180910390fd5b6000806108a233610c20565b9150600073ffffffffffffffffffffffffffffffffffffffff163373ffffffffffffffffffffffffffffffffffffffff16141580156108e4575060008260ff16145b9050801515610981576040517f08c379a00000000000000000000000000000000000000000000000000000000081526004018080602001828103825260218152602001807f43616c6c657220697320616c726561647920706c61796572206f662067616d6581526020017f210000000000000000000000000000000000000000000000000000000000000081525060400191505060405180910390fd5b339250826003600560009054906101000a900460ff1660020360ff166002811015156109a957fe5b0160006101000a81548173ffffffffffffffffffffffffffffffffffffffff021916908373ffffffffffffffffffffffffffffffffffffffff1602179055506005600081819054906101000a900460ff166001900391906101000a81548160ff021916908360ff1602179055506000600560009054906101000a900460ff1660ff161415610a56576001600060156101000a81548160ff02191690836003811115610a5057fe5b02179055505b6000935050505090565b6000809054906101000a900473ffffffffffffffffffffffffffffffffffffffff1673ffffffffffffffffffffffffffffffffffffffff163373ffffffffffffffffffffffffffffffffffffffff16141515610abb57600080fd5b60008060146101000a81548160ff021916908315150217905550565b610adf61164e565b600060149054906101000a900460ff16151515610afb57600080fd5b6003600280602002604051908101604052809291908260028015610b6a576020028201915b8160009054906101000a900473ffffffffffffffffffffffffffffffffffffffff1673ffffffffffffffffffffffffffffffffffffffff1681526020019060010190808311610b20575b5050505050905090565b60008060149054906101000a900460ff16151515610b9157600080fd5b600160009054906101000a900473ffffffffffffffffffffffffffffffffffffffff16905090565b6000809054906101000a900473ffffffffffffffffffffffffffffffffffffffff1673ffffffffffffffffffffffffffffffffffffffff163373ffffffffffffffffffffffffffffffffffffffff16141515610c1457600080fd5b610c1d81611110565b50565b600080600090505b6002811015610cab578273ffffffffffffffffffffffffffffffffffffffff16600382600281101515610c5757fe5b0160009054906101000a900473ffffffffffffffffffffffffffffffffffffffff1673ffffffffffffffffffffffffffffffffffffffff161415610ca057600181019150610cb0565b806001019050610c28565b600091505b50919050565b60008060008060008060018960ff1610151515610d3b576040517f08c379a000000000000000000000000000000000000000000000000000000000815260040180806020018281038252600e8152602001807f496e76616c696420706c6179657200000000000000000000000000000000000081525060200191505060405180910390fd5b60016003811115610d4857fe5b600060159054906101000a900460ff166003811115610d6357fe5b148015610d73575060018960ff16145b80610db2575060026003811115610d8657fe5b600060159054906101000a900460ff166003811115610da157fe5b148015610db1575060028960ff16145b5b9450841515610e29576040517f08c379a00000000000000000000000000000000000000000000000000000000081526004018080602001828103825260178152602001807f4e6f74207468697320706c617965722773207475726e2e00000000000000000081525060200191505060405180910390fd5b876003880201935060008460ff1610158015610e48575060098460ff16105b9250821515610ebf576040517f08c379a00000000000000000000000000000000000000000000000000000000081526004018080602001828103825260178152602001807f496e76616c696420626f61726420706f736974696f6e2e00000000000000000081525060200191505060405180910390fd5b600060028560ff16600981101515610ed357fe5b602091828204019190069054906101000a900460ff1660ff16141515610f61576040517f08c379a000000000000000000000000000000000000000000000000000000000815260040180806020018281038252601b8152602001807f426f61726420706f736974696f6e20616c7265616479207365742e000000000081525060200191505060405180910390fd5b8860028560ff16600981101515610f7457fe5b602091828204019190066101000a81548160ff021916908360ff160217905550610f9c61120a565b9150610fa6611268565b905060008160ff16141561105657811515610fe4576003600060156101000a81548160ff02191690836003811115610fda57fe5b021790555061103f565b60018960ff161415611019576002600060156101000a81548160ff0219169083600381111561100f57fe5b021790555061103e565b6001600060156101000a81548160ff0219169083600381111561103857fe5b02179055505b5b600060159054906101000a900460ff169550611104565b6003600060156101000a81548160ff0219169083600381111561107557fe5b021790555060036001820360ff1660028110151561108f57fe5b0160009054906101000a900473ffffffffffffffffffffffffffffffffffffffff16600160006101000a81548173ffffffffffffffffffffffffffffffffffffffff021916908373ffffffffffffffffffffffffffffffffffffffff160217905550600060159054906101000a900460ff1695505b50505050509392505050565b600073ffffffffffffffffffffffffffffffffffffffff168173ffffffffffffffffffffffffffffffffffffffff161415151561114c57600080fd5b8073ffffffffffffffffffffffffffffffffffffffff166000809054906101000a900473ffffffffffffffffffffffffffffffffffffffff1673ffffffffffffffffffffffffffffffffffffffff167f8be0079c531659141344cd1fd0a4f28419497f9722a3daafe3b4186f6b6457e060405160405180910390a3806000806101000a81548173ffffffffffffffffffffffffffffffffffffffff021916908373ffffffffffffffffffffffffffffffffffffffff16021790555050565b600080600090505b600981101561125f57600060028260098110151561122c57fe5b602091828204019190069054906101000a900460ff1660ff1614156112545760019150611264565b806001019050611212565b600091505b5090565b6000611272611670565b6000806000606060405190810160405280600060ff168152602001600060ff168152602001600060ff168152509350600092506000915060009050600091505b60038260ff16101561136957600092505b60038360ff16101561132c57826003830201905060028160ff166009811015156112e957fe5b602091828204019190069054906101000a900460ff16848460ff1660038110151561131057fe5b602002019060ff16908160ff16815250508260010192506112c3565b6113378460016115d2565b1561134557600194506115cb565b6113508460026115d2565b1561135e57600294506115cb565b8160010191506112b2565b600092505b60038360ff16101561142557600091505b60038260ff1610156113e857826003830201905060028160ff166009811015156113a557fe5b602091828204019190069054906101000a900460ff16848360ff166003811015156113cc57fe5b602002019060ff16908160ff168152505081600101915061137f565b6113f38460016115d2565b1561140157600194506115cb565b61140c8460026115d2565b1561141a57600294506115cb565b82600101925061136e565b6060604051908101604052806002600060098110151561144157fe5b602091828204019190069054906101000a900460ff1660ff1660ff1681526020016002600460098110151561147257fe5b602091828204019190069054906101000a900460ff1660ff1660ff168152602001600260086009811015156114a357fe5b602091828204019190069054906101000a900460ff1660ff1660ff1681525093506114cf8460016115d2565b156114dd57600194506115cb565b6114e88460026115d2565b156114f657600294506115cb565b60606040519081016040528060028060098110151561151157fe5b602091828204019190069054906101000a900460ff1660ff1660ff1681526020016002600460098110151561154257fe5b602091828204019190069054906101000a900460ff1660ff1660ff1681526020016002600660098110151561157357fe5b602091828204019190069054906101000a900460ff1660ff1660ff16815250935061159f8460016115d2565b156115ad57600194506115cb565b6115b88460026115d2565b156115c657600294506115cb565b600094505b5050505090565b600080600090505b60038160ff16101561161e578260ff16848260ff166003811015156115fb57fe5b602002015160ff161415156116135760009150611623565b8060010190506115da565b600191505b5092915050565b61012060405190810160405280600990602082028038833980820191505090505090565b6040805190810160405280600290602082028038833980820191505090505090565b6060604051908101604052806003906020820280388339808201915050905050905600a165627a7a72305820c8402a54504bde0b7256eb43986e33ee2be55b1db51d42329c9931b0a6e59f400029",
  "source": "pragma solidity ^0.4.24;\r\n\r\nimport \"openzeppelin-solidity/contracts/ownership/Ownable.sol\";\r\nimport \"./EmergencyStop.sol\";\r\n\r\n/**\r\n * Game contract of Tic Tac Toe game.\r\n */\r\ncontract TicTacToe is Ownable, EmergencyStop {\r\n\r\n    /**\r\n     * Game phases.\r\n     */\r\n    enum GamePhase {\r\n        /** Players joining. */\r\n        Join,\r\n        /** Turn of player #1. */\r\n        TurnPlayer1,\r\n        /** Turn of player #2. */\r\n        TurnPlayer2,\r\n        /** Game finished. */\r\n        Finished\r\n    }\r\n\r\n    /** Current game phase. */\r\n    GamePhase private _gamePhase = GamePhase.Join;\r\n    /** Address of winning player. */\r\n    address private _winner;\r\n    /** Game board data. */\r\n    uint8[9] private _board;\r\n    /** Participating players. */\r\n    address[2] private _players;\r\n    /**\r\n     * Count of players required to\r\n     * join in order to start the game. \r\n     */\r\n    uint8 private _playersNeededToStart = 2;\r\n\r\n    /**\r\n     * Allow only players of the game to access\r\n     * this method.\r\n     */\r\n    modifier onlyPlayer {\r\n        uint8 playerNum = getPlayerNum(msg.sender);\r\n        bool isPlayer = msg.sender != address(0) && playerNum != 0;\r\n        require(isPlayer, \"Caller is not player of game!\");\r\n        _;\r\n    }\r\n\r\n    /**\r\n     * Allow only non-players of the game to access\r\n     * this method.\r\n     */\r\n    modifier onlyNonPlayer {\r\n        uint8 playerNum = getPlayerNum(msg.sender);\r\n        bool isNotPlayer = msg.sender != address(0) && playerNum == 0;\r\n        require(isNotPlayer, \"Caller is already player of game!\");\r\n        _;\r\n    }\r\n\r\n    /**\r\n     * Allow access to this method only\r\n     * in join phase of game.\r\n     */\r\n    modifier onlyInJoinPhase() {\r\n        require(_gamePhase == GamePhase.Join, \"Invalid game phase for call!\");\r\n        _;\r\n    }\r\n\r\n    /**\r\n     * Allow access to this method only\r\n     * in any player turn phase of game.\r\n     */\r\n    modifier onlyInPlayerTurnPhase() {\r\n        bool isValidGamePhase = _gamePhase == GamePhase.TurnPlayer1 || _gamePhase == GamePhase.TurnPlayer2;\r\n        require(isValidGamePhase, \"Invalid game phase for call!\");\r\n        _;\r\n    }\r\n\r\n    /** \r\n     * Get number of player by player address.\r\n     * Valid player numbers are 1 and 2.\r\n     */\r\n    function getPlayerNum(address player) private view returns (uint8) {\r\n        for (uint i = 0; i < _players.length; ++i) {\r\n            if (_players[i] == player) {\r\n                return (uint8(i))+1;\r\n            }\r\n        }\r\n        // 0 means player not found.\r\n        return 0;\r\n    }\r\n\r\n    /**\r\n     * Has game board any empty fields?\r\n     */\r\n    function hasEmptyFields() private view returns (bool) {\r\n        for (uint i = 0; i < _board.length; ++i) {\r\n            if (_board[i] == 0) {\r\n                return true;\r\n            }\r\n        }\r\n        return false;\r\n    }\r\n\r\n    /**\r\n     * Check line of fields for\r\n     * player win condition.\r\n     */\r\n    function checkLine(uint8[3] memory toCheck, uint8 value) private pure returns (bool) {\r\n        for (uint8 i = 0; i < 3; ++i) {\r\n            if (toCheck[i] != value) {\r\n                return false;\r\n            }\r\n        }\r\n        return true;\r\n    }\r\n\r\n    /**\r\n     * Check game board for\r\n     * game finish & player win condition.\r\n     */\r\n    function checkWinningPlayerNum() private view returns (uint8) {\r\n        uint8[3] memory toCheck = [0, 0, 0];\r\n        uint8 x = 0;\r\n        uint8 y = 0;\r\n        uint8 index = 0;\r\n        // Check rows.\r\n        for (y = 0; y < 3; ++y) {\r\n            for (x = 0; x < 3; ++x) {\r\n                index = (y*3) + x;\r\n                toCheck[x] = _board[index];\r\n            }\r\n            if (checkLine(toCheck, 1)) return 1;\r\n            if (checkLine(toCheck, 2)) return 2;\r\n        }\r\n        // Check columns.\r\n        for (x = 0; x < 3; ++x) {\r\n            for (y = 0; y < 3; ++y) {\r\n                index = (y*3) + x;\r\n                toCheck[y] = _board[index];\r\n            }\r\n            if (checkLine(toCheck, 1)) return 1;\r\n            if (checkLine(toCheck, 2)) return 2;\r\n        }\r\n        // Check diagonals.\r\n        toCheck = [_board[0], _board[4], _board[8]];\r\n        if (checkLine(toCheck, 1)) return 1;\r\n        if (checkLine(toCheck, 2)) return 2;\r\n        toCheck = [_board[2], _board[4], _board[6]];\r\n        if (checkLine(toCheck, 1)) return 1;\r\n        if (checkLine(toCheck, 2)) return 2;\r\n        return 0;\r\n    }\r\n\r\n    /**\r\n     * Perform player turn for\r\n     * player with number &\r\n     * flag field at position.\r\n     */\r\n    function playerTurnForNum(uint8 playerNum, uint8 x, uint8 y)\r\n        private\r\n        returns (GamePhase) {\r\n        require(playerNum >= 1, \"Invalid player\");\r\n        bool isValidPlayerTurn = (_gamePhase == GamePhase.TurnPlayer1 && playerNum == 1) ||\r\n            (_gamePhase == GamePhase.TurnPlayer2 && playerNum == 2);\r\n        require(isValidPlayerTurn, \"Not this player's turn.\");\r\n        uint8 index = (y*3) + x;\r\n        bool isValidBoardPosition = (index >= 0 && index < 9);\r\n        require(isValidBoardPosition, \"Invalid board position.\");\r\n        require(_board[index] == 0, \"Board position already set.\");\r\n        _board[index] = playerNum;\r\n        bool emptyFields = hasEmptyFields();\r\n        uint8 winningPlayerNum = checkWinningPlayerNum();\r\n        if (winningPlayerNum == 0) {\r\n            if (!emptyFields) _gamePhase = GamePhase.Finished;\r\n            else if (playerNum == 1) _gamePhase = GamePhase.TurnPlayer2;\r\n            else _gamePhase = GamePhase.TurnPlayer1;\r\n            return _gamePhase;\r\n        } \r\n        _gamePhase = GamePhase.Finished;\r\n        _winner = _players[winningPlayerNum - 1];\r\n        return _gamePhase;\r\n    }\r\n\r\n    /**\r\n     * Let calling address join game as\r\n     * new player.\r\n     */\r\n    function join()\r\n        public \r\n        stoppedInEmergency onlyInJoinPhase onlyNonPlayer returns (int) {\r\n        address player = msg.sender;\r\n        _players[2 - _playersNeededToStart] = player;\r\n        --_playersNeededToStart;\r\n        if (_playersNeededToStart == 0) {\r\n            _gamePhase = GamePhase.TurnPlayer1;\r\n        }\r\n        return 0;\r\n    }\r\n\r\n   /**\r\n     * Perform player turn for\r\n     * calling player &\r\n     * flag field at position.\r\n     */\r\n    function playerTurn(uint8 x, uint8 y) \r\n        public \r\n        stoppedInEmergency onlyInPlayerTurnPhase onlyPlayer \r\n        returns (GamePhase) {\r\n        uint8 playerNum = getPlayerNum(msg.sender);\r\n        return playerTurnForNum(playerNum, x, y);\r\n    }\r\n\r\n    /**\r\n     * Get address of winning player.\r\n     */\r\n    function winner() public view stoppedInEmergency returns (address) {\r\n        return _winner;\r\n    }\r\n\r\n    /**\r\n     * Get current game phase.\r\n     */\r\n    function gamePhase() public view stoppedInEmergency returns (GamePhase) {\r\n        return _gamePhase;\r\n    }\r\n\r\n    /**\r\n     * Get game board data.\r\n     */\r\n    function board() public view stoppedInEmergency returns (uint8[9] memory) {\r\n        return _board;\r\n    }\r\n\r\n    /**\r\n     * Get participating players.\r\n     */\r\n    function players() public view stoppedInEmergency returns (address[2] memory) {\r\n        return _players;\r\n    }\r\n\r\n}\r\n",
  "sourcePath": "E:\\Work\\school-of-ai\\dapps\\game\\eth-tic-tac-toe\\truffle\\contracts\\TIcTacToe.sol",
  "compiler": {
    "name": "solc",
    "version": "0.4.25+commit.59dbf8f1.Emscripten.clang"
  },
  "schemaVersion": "2.0.2",
  "updatedAt": "2018-12-23T13:02:58.339Z"
}