{
  "contractName": "TicTacToe",
  "abi": [
    {
      "constant": false,
      "inputs": [],
      "name": "stopContract",
      "outputs": [],
      "payable": false,
      "stateMutability": "nonpayable",
      "type": "function"
    },
    {
      "constant": true,
      "inputs": [],
      "name": "isStopped",
      "outputs": [
        {
          "name": "",
          "type": "bool"
        }
      ],
      "payable": false,
      "stateMutability": "view",
      "type": "function"
    },
    {
      "constant": false,
      "inputs": [],
      "name": "renounceOwnership",
      "outputs": [],
      "payable": false,
      "stateMutability": "nonpayable",
      "type": "function"
    },
    {
      "constant": true,
      "inputs": [],
      "name": "owner",
      "outputs": [
        {
          "name": "",
          "type": "address"
        }
      ],
      "payable": false,
      "stateMutability": "view",
      "type": "function"
    },
    {
      "constant": true,
      "inputs": [],
      "name": "isOwner",
      "outputs": [
        {
          "name": "",
          "type": "bool"
        }
      ],
      "payable": false,
      "stateMutability": "view",
      "type": "function"
    },
    {
      "constant": false,
      "inputs": [],
      "name": "resumeContract",
      "outputs": [],
      "payable": false,
      "stateMutability": "nonpayable",
      "type": "function"
    },
    {
      "constant": false,
      "inputs": [
        {
          "name": "newOwner",
          "type": "address"
        }
      ],
      "name": "transferOwnership",
      "outputs": [],
      "payable": false,
      "stateMutability": "nonpayable",
      "type": "function"
    },
    {
      "anonymous": false,
      "inputs": [
        {
          "indexed": true,
          "name": "previousOwner",
          "type": "address"
        },
        {
          "indexed": true,
          "name": "newOwner",
          "type": "address"
        }
      ],
      "name": "OwnershipTransferred",
      "type": "event"
    },
    {
      "constant": false,
      "inputs": [],
      "name": "join",
      "outputs": [
        {
          "name": "",
          "type": "int256"
        }
      ],
      "payable": false,
      "stateMutability": "nonpayable",
      "type": "function"
    },
    {
      "constant": false,
      "inputs": [
        {
          "name": "x",
          "type": "uint8"
        },
        {
          "name": "y",
          "type": "uint8"
        }
      ],
      "name": "playerTurn",
      "outputs": [
        {
          "name": "",
          "type": "uint8"
        }
      ],
      "payable": false,
      "stateMutability": "nonpayable",
      "type": "function"
    },
    {
      "constant": true,
      "inputs": [],
      "name": "winner",
      "outputs": [
        {
          "name": "",
          "type": "address"
        }
      ],
      "payable": false,
      "stateMutability": "view",
      "type": "function"
    },
    {
      "constant": true,
      "inputs": [],
      "name": "gamePhase",
      "outputs": [
        {
          "name": "",
          "type": "uint8"
        }
      ],
      "payable": false,
      "stateMutability": "view",
      "type": "function"
    },
    {
      "constant": true,
      "inputs": [],
      "name": "elapsedTurns",
      "outputs": [
        {
          "name": "",
          "type": "uint8"
        }
      ],
      "payable": false,
      "stateMutability": "view",
      "type": "function"
    },
    {
      "constant": true,
      "inputs": [],
      "name": "board",
      "outputs": [
        {
          "name": "",
          "type": "uint8[9]"
        }
      ],
      "payable": false,
      "stateMutability": "view",
      "type": "function"
    },
    {
      "constant": true,
      "inputs": [],
      "name": "players",
      "outputs": [
        {
          "name": "",
          "type": "address[2]"
        }
      ],
      "payable": false,
      "stateMutability": "view",
      "type": "function"
    }
  ],
  "bytecode": "0x608060405260008060146101000a81548160ff02191690831515021790555060008060156101000a81548160ff0219169083600381111561003c57fe5b02179055506002600560006101000a81548160ff021916908360ff1602179055506000600560016101000a81548160ff021916908360ff160217905550336000806101000a81548173ffffffffffffffffffffffffffffffffffffffff021916908373ffffffffffffffffffffffffffffffffffffffff1602179055506000809054906101000a900473ffffffffffffffffffffffffffffffffffffffff1673ffffffffffffffffffffffffffffffffffffffff16600073ffffffffffffffffffffffffffffffffffffffff167f8be0079c531659141344cd1fd0a4f28419497f9722a3daafe3b4186f6b6457e060405160405180910390a361172b806101446000396000f3fe6080604052600436106100d0576000357c0100000000000000000000000000000000000000000000000000000000900463ffffffff16806312253a6c146100d55780633951be87146100ec5780633f683b6a146101255780637137984a14610154578063715018a6146101855780637cd3229a1461019c5780638da5cb5b146101ef5780638f32d59b14610246578063a03e031a14610275578063b688a363146102e2578063c4bc5da51461030d578063dc0b356414610324578063dfbf53ae14610377578063f2fde38b146103ce575b600080fd5b3480156100e157600080fd5b506100ea61041f565b005b3480156100f857600080fd5b5061010161044f565b6040518082600381111561011157fe5b60ff16815260200191505060405180910390f35b34801561013157600080fd5b5061013a610481565b604051808215151515815260200191505060405180910390f35b34801561016057600080fd5b50610169610497565b604051808260ff1660ff16815260200191505060405180910390f35b34801561019157600080fd5b5061019a6104c9565b005b3480156101a857600080fd5b506101b161059b565b6040518082600960200280838360005b838110156101dc5780820151818401526020810190506101c1565b5050505090500191505060405180910390f35b3480156101fb57600080fd5b50610204610628565b604051808273ffffffffffffffffffffffffffffffffffffffff1673ffffffffffffffffffffffffffffffffffffffff16815260200191505060405180910390f35b34801561025257600080fd5b5061025b610651565b604051808215151515815260200191505060405180910390f35b34801561028157600080fd5b506102be6004803603604081101561029857600080fd5b81019080803560ff169060200190929190803560ff1690602001909291905050506106a8565b604051808260038111156102ce57fe5b60ff16815260200191505060405180910390f35b3480156102ee57600080fd5b506102f7610881565b6040518082815260200191505060405180910390f35b34801561031957600080fd5b50610322610b07565b005b34801561033057600080fd5b50610339610b36565b6040518082600260200280838360005b83811015610364578082015181840152602081019050610349565b5050505090500191505060405180910390f35b34801561038357600080fd5b5061038c610bd3565b604051808273ffffffffffffffffffffffffffffffffffffffff1673ffffffffffffffffffffffffffffffffffffffff16815260200191505060405180910390f35b3480156103da57600080fd5b5061041d600480360360208110156103f157600080fd5b81019080803573ffffffffffffffffffffffffffffffffffffffff169060200190929190505050610c18565b005b610427610651565b151561043257600080fd5b6001600060146101000a81548160ff021916908315150217905550565b60008060149054906101000a900460ff1615151561046c57600080fd5b600060159054906101000a900460ff16905090565b60008060149054906101000a900460ff16905090565b60008060149054906101000a900460ff161515156104b457600080fd5b600560019054906101000a900460ff16905090565b6104d1610651565b15156104dc57600080fd5b600073ffffffffffffffffffffffffffffffffffffffff166000809054906101000a900473ffffffffffffffffffffffffffffffffffffffff1673ffffffffffffffffffffffffffffffffffffffff167f8be0079c531659141344cd1fd0a4f28419497f9722a3daafe3b4186f6b6457e060405160405180910390a360008060006101000a81548173ffffffffffffffffffffffffffffffffffffffff021916908373ffffffffffffffffffffffffffffffffffffffff160217905550565b6105a3611696565b600060149054906101000a900460ff161515156105bf57600080fd5b600260098060200260405190810160405280929190826009801561061e576020028201916000905b82829054906101000a900460ff1660ff16815260200190600101906020826000010492830192600103820291508084116105e75790505b5050505050905090565b60008060009054906101000a900473ffffffffffffffffffffffffffffffffffffffff16905090565b60008060009054906101000a900473ffffffffffffffffffffffffffffffffffffffff1673ffffffffffffffffffffffffffffffffffffffff163373ffffffffffffffffffffffffffffffffffffffff1614905090565b60008060149054906101000a900460ff161515156106c557600080fd5b6000600160038111156106d457fe5b600060159054906101000a900460ff1660038111156106ef57fe5b148061072057506002600381111561070357fe5b600060159054906101000a900460ff16600381111561071e57fe5b145b9050801515610797576040517f08c379a000000000000000000000000000000000000000000000000000000000815260040180806020018281038252601c8152602001807f496e76616c69642067616d6520706861736520666f722063616c6c210000000081525060200191505060405180910390fd5b60006107a233610c37565b905060008073ffffffffffffffffffffffffffffffffffffffff163373ffffffffffffffffffffffffffffffffffffffff16141580156107e6575060008260ff1614155b905080151561085d576040517f08c379a000000000000000000000000000000000000000000000000000000000815260040180806020018281038252601d8152602001807f43616c6c6572206973206e6f7420706c61796572206f662067616d652100000081525060200191505060405180910390fd5b600061086833610c37565b9050610875818888610cce565b94505050505092915050565b60008060149054906101000a900460ff1615151561089e57600080fd5b600060038111156108ab57fe5b600060159054906101000a900460ff1660038111156108c657fe5b14151561093b576040517f08c379a000000000000000000000000000000000000000000000000000000000815260040180806020018281038252601c8152602001807f496e76616c69642067616d6520706861736520666f722063616c6c210000000081525060200191505060405180910390fd5b600061094633610c37565b905060008073ffffffffffffffffffffffffffffffffffffffff163373ffffffffffffffffffffffffffffffffffffffff1614158015610989575060008260ff16145b9050801515610a26576040517f08c379a00000000000000000000000000000000000000000000000000000000081526004018080602001828103825260218152602001807f43616c6c657220697320616c726561647920706c61796572206f662067616d6581526020017f210000000000000000000000000000000000000000000000000000000000000081525060400191505060405180910390fd5b6000339050806003600560009054906101000a900460ff1660020360ff16600281101515610a5057fe5b0160006101000a81548173ffffffffffffffffffffffffffffffffffffffff021916908373ffffffffffffffffffffffffffffffffffffffff1602179055506005600081819054906101000a900460ff166001900391906101000a81548160ff021916908360ff1602179055506000600560009054906101000a900460ff1660ff161415610afd576001600060156101000a81548160ff02191690836003811115610af757fe5b02179055505b6000935050505090565b610b0f610651565b1515610b1a57600080fd5b60008060146101000a81548160ff021916908315150217905550565b610b3e6116ba565b600060149054906101000a900460ff16151515610b5a57600080fd5b6003600280602002604051908101604052809291908260028015610bc9576020028201915b8160009054906101000a900473ffffffffffffffffffffffffffffffffffffffff1673ffffffffffffffffffffffffffffffffffffffff1681526020019060010190808311610b7f575b5050505050905090565b60008060149054906101000a900460ff16151515610bf057600080fd5b600160009054906101000a900473ffffffffffffffffffffffffffffffffffffffff16905090565b610c20610651565b1515610c2b57600080fd5b610c348161115c565b50565b600080600090505b6002811015610cc3578273ffffffffffffffffffffffffffffffffffffffff16600382600281101515610c6e57fe5b0160009054906101000a900473ffffffffffffffffffffffffffffffffffffffff1673ffffffffffffffffffffffffffffffffffffffff161415610cb85760018101915050610cc9565b806001019050610c3f565b50600090505b919050565b600060018460ff1610151515610d4c576040517f08c379a000000000000000000000000000000000000000000000000000000000815260040180806020018281038252600e8152602001807f496e76616c696420706c6179657200000000000000000000000000000000000081525060200191505060405180910390fd5b600060016003811115610d5b57fe5b600060159054906101000a900460ff166003811115610d7657fe5b148015610d86575060018560ff16145b80610dc5575060026003811115610d9957fe5b600060159054906101000a900460ff166003811115610db457fe5b148015610dc4575060028560ff16145b5b9050801515610e3c576040517f08c379a00000000000000000000000000000000000000000000000000000000081526004018080602001828103825260178152602001807f4e6f74207468697320706c617965722773207475726e2e00000000000000000081525060200191505060405180910390fd5b600084600385020190506000808260ff1610158015610e5e575060098260ff16105b9050801515610ed5576040517f08c379a00000000000000000000000000000000000000000000000000000000081526004018080602001828103825260178152602001807f496e76616c696420626f61726420706f736974696f6e2e00000000000000000081525060200191505060405180910390fd5b600060028360ff16600981101515610ee957fe5b602091828204019190069054906101000a900460ff1660ff16141515610f77576040517f08c379a000000000000000000000000000000000000000000000000000000000815260040180806020018281038252601b8152602001807f426f61726420706f736974696f6e20616c7265616479207365742e000000000081525060200191505060405180910390fd5b8660028360ff16600981101515610f8a57fe5b602091828204019190066101000a81548160ff021916908360ff1602179055506001600560019054906101000a900460ff1601600560016101000a81548160ff021916908360ff1602179055506000610fe1611256565b90506000610fed6112b5565b905060008160ff1614156110a25781151561102b576003600060156101000a81548160ff0219169083600381111561102157fe5b0217905550611086565b60018960ff161415611060576002600060156101000a81548160ff0219169083600381111561105657fe5b0217905550611085565b6001600060156101000a81548160ff0219169083600381111561107f57fe5b02179055505b5b600060159054906101000a900460ff1695505050505050611155565b6003600060156101000a81548160ff021916908360038111156110c157fe5b021790555060036001820360ff166002811015156110db57fe5b0160009054906101000a900473ffffffffffffffffffffffffffffffffffffffff16600160006101000a81548173ffffffffffffffffffffffffffffffffffffffff021916908373ffffffffffffffffffffffffffffffffffffffff160217905550600060159054906101000a900460ff16955050505050505b9392505050565b600073ffffffffffffffffffffffffffffffffffffffff168173ffffffffffffffffffffffffffffffffffffffff161415151561119857600080fd5b8073ffffffffffffffffffffffffffffffffffffffff166000809054906101000a900473ffffffffffffffffffffffffffffffffffffffff1673ffffffffffffffffffffffffffffffffffffffff167f8be0079c531659141344cd1fd0a4f28419497f9722a3daafe3b4186f6b6457e060405160405180910390a3806000806101000a81548173ffffffffffffffffffffffffffffffffffffffff021916908373ffffffffffffffffffffffffffffffffffffffff16021790555050565b600080600090505b60098110156112ac57600060028260098110151561127857fe5b602091828204019190069054906101000a900460ff1660ff1614156112a15760019150506112b2565b80600101905061125e565b50600090505b90565b60006112bf6116dc565b606060405190810160405280600060ff168152602001600060ff168152602001600060ff168152509050600080905060008090506000809050600091505b60038260ff1610156113bc57600092505b60038360ff16101561137757826003830201905060028160ff1660098110151561133457fe5b602091828204019190069054906101000a900460ff16848460ff1660038110151561135b57fe5b602002019060ff16908160ff168152505082600101925061130e565b61138284600161163d565b1561139457600194505050505061163a565b61139f84600261163d565b156113b157600294505050505061163a565b8160010191506112fd565b600092505b60038360ff16101561148057600091505b60038260ff16101561143b57826003830201905060028160ff166009811015156113f857fe5b602091828204019190069054906101000a900460ff16848360ff1660038110151561141f57fe5b602002019060ff16908160ff16815250508160010191506113d2565b61144684600161163d565b1561145857600194505050505061163a565b61146384600261163d565b1561147557600294505050505061163a565b8260010192506113c1565b6060604051908101604052806002600060098110151561149c57fe5b602091828204019190069054906101000a900460ff1660ff1660ff168152602001600260046009811015156114cd57fe5b602091828204019190069054906101000a900460ff1660ff1660ff168152602001600260086009811015156114fe57fe5b602091828204019190069054906101000a900460ff1660ff1660ff16815250935061152a84600161163d565b1561153c57600194505050505061163a565b61154784600261163d565b1561155957600294505050505061163a565b60606040519081016040528060028060098110151561157457fe5b602091828204019190069054906101000a900460ff1660ff1660ff168152602001600260046009811015156115a557fe5b602091828204019190069054906101000a900460ff1660ff1660ff168152602001600260066009811015156115d657fe5b602091828204019190069054906101000a900460ff1660ff1660ff16815250935061160284600161163d565b1561161457600194505050505061163a565b61161f84600261163d565b1561163157600294505050505061163a565b60009450505050505b90565b600080600090505b60038160ff16101561168a578260ff16848260ff1660038110151561166657fe5b602002015160ff1614151561167f576000915050611690565b806001019050611645565b50600190505b92915050565b61012060405190810160405280600990602082028038833980820191505090505090565b6040805190810160405280600290602082028038833980820191505090505090565b60606040519081016040528060039060208202803883398082019150509050509056fea165627a7a72305820be7f9c8970b57f292de9c31d2d0c4c7c6425c2ef815a88e019764b00c5ee9deb0029",
  "source": "pragma solidity ^0.5.0;\n\nimport \"openzeppelin-solidity/contracts/ownership/Ownable.sol\";\nimport \"./EmergencyStop.sol\";\n\n/**\n * Game contract of Tic Tac Toe game.\n */\ncontract TicTacToe is Ownable, EmergencyStop {\n\n    /**\n     * Game phases.\n     */\n    enum GamePhase {\n        /** Players joining. */\n        Join,\n        /** Turn of player #1. */\n        TurnPlayer1,\n        /** Turn of player #2. */\n        TurnPlayer2,\n        /** Game finished. */\n        Finished\n    }\n\n    /** Current game phase. */\n    GamePhase private _gamePhase = GamePhase.Join;\n    /** Address of winning player. */\n    address private _winner;\n    /** Game board data. */\n    uint8[9] private _board;\n    /** Participating players. */\n    address[2] private _players;\n    /**\n     * Count of players required to\n     * join in order to start the game. \n     */\n    uint8 private _playersNeededToStart = 2;\n\n    /** Number of elapsed game turns. */\n    uint8 private _elapsedTurns = 0;\n\n    /**\n     * Allow only players of the game to access\n     * this method.\n     */\n    modifier onlyPlayer {\n        uint8 playerNum = getPlayerNum(msg.sender);\n        bool isPlayer = msg.sender != address(0) && playerNum != 0;\n        require(isPlayer, \"Caller is not player of game!\");\n        _;\n    }\n\n    /**\n     * Allow only non-players of the game to access\n     * this method.\n     */\n    modifier onlyNonPlayer {\n        uint8 playerNum = getPlayerNum(msg.sender);\n        bool isNotPlayer = msg.sender != address(0) && playerNum == 0;\n        require(isNotPlayer, \"Caller is already player of game!\");\n        _;\n    }\n\n    /**\n     * Allow access to this method only\n     * in join phase of game.\n     */\n    modifier onlyInJoinPhase() {\n        require(_gamePhase == GamePhase.Join, \"Invalid game phase for call!\");\n        _;\n    }\n\n    /**\n     * Allow access to this method only\n     * in any player turn phase of game.\n     */\n    modifier onlyInPlayerTurnPhase() {\n        bool isValidGamePhase = _gamePhase == GamePhase.TurnPlayer1 || _gamePhase == GamePhase.TurnPlayer2;\n        require(isValidGamePhase, \"Invalid game phase for call!\");\n        _;\n    }\n\n    /** \n     * Get number of player by player address.\n     * Valid player numbers are 1 and 2.\n     */\n    function getPlayerNum(address player) private view returns (uint8) {\n        for (uint i = 0; i < _players.length; ++i) {\n            if (_players[i] == player) {\n                return (uint8(i))+1;\n            }\n        }\n        // 0 means player not found.\n        return 0;\n    }\n\n    /**\n     * Has game board any empty fields?\n     */\n    function hasEmptyFields() private view returns (bool) {\n        for (uint i = 0; i < _board.length; ++i) {\n            if (_board[i] == 0) {\n                return true;\n            }\n        }\n        return false;\n    }\n\n    /**\n     * Check line of fields for\n     * player win condition.\n     */\n    function checkLine(uint8[3] memory toCheck, uint8 value) private pure returns (bool) {\n        for (uint8 i = 0; i < 3; ++i) {\n            if (toCheck[i] != value) {\n                return false;\n            }\n        }\n        return true;\n    }\n\n    /**\n     * Check game board for\n     * game finish & player win condition.\n     */\n    function checkWinningPlayerNum() private view returns (uint8) {\n        uint8[3] memory toCheck = [0, 0, 0];\n        uint8 x = 0;\n        uint8 y = 0;\n        uint8 index = 0;\n        // Check rows.\n        for (y = 0; y < 3; ++y) {\n            for (x = 0; x < 3; ++x) {\n                index = (y*3) + x;\n                toCheck[x] = _board[index];\n            }\n            if (checkLine(toCheck, 1)) return 1;\n            if (checkLine(toCheck, 2)) return 2;\n        }\n        // Check columns.\n        for (x = 0; x < 3; ++x) {\n            for (y = 0; y < 3; ++y) {\n                index = (y*3) + x;\n                toCheck[y] = _board[index];\n            }\n            if (checkLine(toCheck, 1)) return 1;\n            if (checkLine(toCheck, 2)) return 2;\n        }\n        // Check diagonals.\n        toCheck = [_board[0], _board[4], _board[8]];\n        if (checkLine(toCheck, 1)) return 1;\n        if (checkLine(toCheck, 2)) return 2;\n        toCheck = [_board[2], _board[4], _board[6]];\n        if (checkLine(toCheck, 1)) return 1;\n        if (checkLine(toCheck, 2)) return 2;\n        return 0;\n    }\n\n    /**\n     * Perform player turn for\n     * player with number &\n     * flag field at position.\n     */\n    function playerTurnForNum(uint8 playerNum, uint8 x, uint8 y)\n        private\n        returns (GamePhase) {\n        require(playerNum >= 1, \"Invalid player\");\n        bool isValidPlayerTurn = (_gamePhase == GamePhase.TurnPlayer1 && playerNum == 1) ||\n            (_gamePhase == GamePhase.TurnPlayer2 && playerNum == 2);\n        require(isValidPlayerTurn, \"Not this player's turn.\");\n        uint8 index = (y*3) + x;\n        bool isValidBoardPosition = (index >= 0 && index < 9);\n        require(isValidBoardPosition, \"Invalid board position.\");\n        require(_board[index] == 0, \"Board position already set.\");\n        _board[index] = playerNum;\n        _elapsedTurns = _elapsedTurns + 1;\n        bool emptyFields = hasEmptyFields();\n        uint8 winningPlayerNum = checkWinningPlayerNum();\n        if (winningPlayerNum == 0) {\n            if (!emptyFields) _gamePhase = GamePhase.Finished;\n            else if (playerNum == 1) _gamePhase = GamePhase.TurnPlayer2;\n            else _gamePhase = GamePhase.TurnPlayer1;\n            return _gamePhase;\n        } \n        _gamePhase = GamePhase.Finished;\n        _winner = _players[winningPlayerNum - 1];\n        return _gamePhase;\n    }\n\n    /**\n     * Let calling address join game as\n     * new player.\n     */\n    function join()\n        public \n        stoppedInEmergency onlyInJoinPhase onlyNonPlayer returns (int) {\n        address player = msg.sender;\n        _players[2 - _playersNeededToStart] = player;\n        --_playersNeededToStart;\n        if (_playersNeededToStart == 0) {\n            _gamePhase = GamePhase.TurnPlayer1;\n        }\n        return 0;\n    }\n\n   /**\n     * Perform player turn for\n     * calling player &\n     * flag field at position.\n     */\n    function playerTurn(uint8 x, uint8 y) \n        public \n        stoppedInEmergency onlyInPlayerTurnPhase onlyPlayer \n        returns (GamePhase) {\n        uint8 playerNum = getPlayerNum(msg.sender);\n        return playerTurnForNum(playerNum, x, y);\n    }\n\n    /**\n     * Get address of winning player.\n     */\n    function winner() public view stoppedInEmergency returns (address) {\n        return _winner;\n    }\n\n    /**\n     * Get current game phase.\n     */\n    function gamePhase() public view stoppedInEmergency returns (GamePhase) {\n        return _gamePhase;\n    }\n\n     /**\n     * Get number of elapsed game turns.\n     */\n    function elapsedTurns() public view stoppedInEmergency returns (uint8) {\n        return _elapsedTurns;\n    }\n\n    /**\n     * Get game board data.\n     */\n    function board() public view stoppedInEmergency returns (uint8[9] memory) {\n        return _board;\n    }\n\n    /**\n     * Get participating players.\n     */\n    function players() public view stoppedInEmergency returns (address[2] memory) {\n        return _players;\n    }\n\n}\n",
  "sourcePath": "/home/ralph/work/own-projects/GitHub/eth-tic-tac-toe/packages/truffle/contracts/TicTacToe.sol",
  "compiler": {
    "name": "solc",
    "version": "0.5.0+commit.1d4f565a.Emscripten.clang"
  },
  "schemaVersion": "3.0.1",
  "updatedAt": "2019-02-10T07:24:00.438Z",
  "devdoc": {
    "methods": {
      "isOwner()": {
        "return": "true if `msg.sender` is the owner of the contract."
      },
      "owner()": {
        "return": "the address of the owner."
      },
      "renounceOwnership()": {
        "details": "Allows the current owner to relinquish control of the contract."
      },
      "transferOwnership(address)": {
        "details": "Allows the current owner to transfer control of the contract to a newOwner.",
        "params": {
          "newOwner": "The address to transfer ownership to."
        }
      }
    }
  },
  "userdoc": {
    "methods": {
      "board()": {
        "notice": "Get game board data."
      },
      "elapsedTurns()": {
        "notice": "Get number of elapsed game turns."
      },
      "gamePhase()": {
        "notice": "Get current game phase."
      },
      "join()": {
        "notice": "Let calling address join game as new player."
      },
      "playerTurn(uint8,uint8)": {
        "notice": "Perform player turn for calling player & flag field at position."
      },
      "players()": {
        "notice": "Get participating players."
      },
      "renounceOwnership()": {
        "notice": "Renouncing to ownership will leave the contract without an owner. It will not be possible to call the functions with the `onlyOwner` modifier anymore."
      },
      "winner()": {
        "notice": "Get address of winning player."
      }
    },
    "notice": "Game contract of Tic Tac Toe game."
  }
}